{
  "_format": "hh-sol-artifact-1",
  "contractName": "CardToken",
  "sourceName": "contracts/CardToken.sol",
  "abi": [
    {
      "inputs": [],
      "stateMutability": "nonpayable",
      "type": "constructor"
    },
    {
      "anonymous": false,
      "inputs": [
        {
          "indexed": true,
          "internalType": "address",
          "name": "owner",
          "type": "address"
        },
        {
          "indexed": true,
          "internalType": "address",
          "name": "approved",
          "type": "address"
        },
        {
          "indexed": true,
          "internalType": "uint256",
          "name": "tokenId",
          "type": "uint256"
        }
      ],
      "name": "Approval",
      "type": "event"
    },
    {
      "anonymous": false,
      "inputs": [
        {
          "indexed": true,
          "internalType": "address",
          "name": "owner",
          "type": "address"
        },
        {
          "indexed": true,
          "internalType": "address",
          "name": "operator",
          "type": "address"
        },
        {
          "indexed": false,
          "internalType": "bool",
          "name": "approved",
          "type": "bool"
        }
      ],
      "name": "ApprovalForAll",
      "type": "event"
    },
    {
      "anonymous": false,
      "inputs": [
        {
          "indexed": true,
          "internalType": "address",
          "name": "buyer",
          "type": "address"
        },
        {
          "indexed": true,
          "internalType": "address",
          "name": "seller",
          "type": "address"
        },
        {
          "indexed": false,
          "internalType": "uint256",
          "name": "cardIndex",
          "type": "uint256"
        },
        {
          "indexed": false,
          "internalType": "uint256",
          "name": "amount",
          "type": "uint256"
        }
      ],
      "name": "CardPurchased",
      "type": "event"
    },
    {
      "anonymous": false,
      "inputs": [
        {
          "indexed": true,
          "internalType": "address",
          "name": "owner",
          "type": "address"
        },
        {
          "indexed": false,
          "internalType": "uint256",
          "name": "id",
          "type": "uint256"
        },
        {
          "indexed": false,
          "internalType": "string",
          "name": "name",
          "type": "string"
        }
      ],
      "name": "NewCard",
      "type": "event"
    },
    {
      "anonymous": false,
      "inputs": [
        {
          "indexed": true,
          "internalType": "address",
          "name": "previousOwner",
          "type": "address"
        },
        {
          "indexed": true,
          "internalType": "address",
          "name": "newOwner",
          "type": "address"
        }
      ],
      "name": "OwnershipTransferred",
      "type": "event"
    },
    {
      "anonymous": false,
      "inputs": [
        {
          "indexed": true,
          "internalType": "address",
          "name": "from",
          "type": "address"
        },
        {
          "indexed": true,
          "internalType": "address",
          "name": "to",
          "type": "address"
        },
        {
          "indexed": true,
          "internalType": "uint256",
          "name": "tokenId",
          "type": "uint256"
        }
      ],
      "name": "Transfer",
      "type": "event"
    },
    {
      "inputs": [
        {
          "internalType": "uint256",
          "name": "_counter",
          "type": "uint256"
        },
        {
          "internalType": "address",
          "name": "_buyer",
          "type": "address"
        }
      ],
      "name": "acceptSale",
      "outputs": [],
      "stateMutability": "payable",
      "type": "function"
    },
    {
      "inputs": [
        {
          "internalType": "address",
          "name": "to",
          "type": "address"
        },
        {
          "internalType": "uint256",
          "name": "tokenId",
          "type": "uint256"
        }
      ],
      "name": "approve",
      "outputs": [],
      "stateMutability": "nonpayable",
      "type": "function"
    },
    {
      "inputs": [
        {
          "internalType": "address",
          "name": "owner",
          "type": "address"
        }
      ],
      "name": "balanceOf",
      "outputs": [
        {
          "internalType": "uint256",
          "name": "",
          "type": "uint256"
        }
      ],
      "stateMutability": "view",
      "type": "function"
    },
    {
      "inputs": [
        {
          "internalType": "uint256",
          "name": "",
          "type": "uint256"
        }
      ],
      "name": "cards",
      "outputs": [
        {
          "internalType": "string",
          "name": "name",
          "type": "string"
        },
        {
          "internalType": "uint256",
          "name": "id",
          "type": "uint256"
        },
        {
          "internalType": "uint256",
          "name": "cardNum",
          "type": "uint256"
        },
        {
          "internalType": "uint256",
          "name": "amount",
          "type": "uint256"
        },
        {
          "internalType": "string",
          "name": "url",
          "type": "string"
        }
      ],
      "stateMutability": "view",
      "type": "function"
    },
    {
      "inputs": [
        {
          "internalType": "uint256",
          "name": "tokenId",
          "type": "uint256"
        }
      ],
      "name": "getApproved",
      "outputs": [
        {
          "internalType": "address",
          "name": "",
          "type": "address"
        }
      ],
      "stateMutability": "view",
      "type": "function"
    },
    {
      "inputs": [],
      "name": "getCardTokens",
      "outputs": [
        {
          "components": [
            {
              "internalType": "string",
              "name": "name",
              "type": "string"
            },
            {
              "internalType": "uint256",
              "name": "id",
              "type": "uint256"
            },
            {
              "internalType": "uint256",
              "name": "cardNum",
              "type": "uint256"
            },
            {
              "internalType": "uint256",
              "name": "amount",
              "type": "uint256"
            },
            {
              "internalType": "string",
              "name": "url",
              "type": "string"
            }
          ],
          "internalType": "struct CardToken.Card[]",
          "name": "",
          "type": "tuple[]"
        }
      ],
      "stateMutability": "view",
      "type": "function"
    },
    {
      "inputs": [],
      "name": "getCardsOnSale",
      "outputs": [
        {
          "components": [
            {
              "internalType": "string",
              "name": "name",
              "type": "string"
            },
            {
              "internalType": "uint256",
              "name": "id",
              "type": "uint256"
            },
            {
              "internalType": "uint256",
              "name": "cardNum",
              "type": "uint256"
            },
            {
              "internalType": "uint256",
              "name": "amount",
              "type": "uint256"
            },
            {
              "internalType": "string",
              "name": "url",
              "type": "string"
            }
          ],
          "internalType": "struct CardToken.Card[]",
          "name": "",
          "type": "tuple[]"
        }
      ],
      "stateMutability": "view",
      "type": "function"
    },
    {
      "inputs": [
        {
          "internalType": "address",
          "name": "_owner",
          "type": "address"
        }
      ],
      "name": "getOwnerCards",
      "outputs": [
        {
          "components": [
            {
              "internalType": "string",
              "name": "name",
              "type": "string"
            },
            {
              "internalType": "uint256",
              "name": "id",
              "type": "uint256"
            },
            {
              "internalType": "uint256",
              "name": "cardNum",
              "type": "uint256"
            },
            {
              "internalType": "uint256",
              "name": "amount",
              "type": "uint256"
            },
            {
              "internalType": "string",
              "name": "url",
              "type": "string"
            }
          ],
          "internalType": "struct CardToken.Card[]",
          "name": "",
          "type": "tuple[]"
        }
      ],
      "stateMutability": "view",
      "type": "function"
    },
    {
      "inputs": [
        {
          "internalType": "address",
          "name": "owner",
          "type": "address"
        },
        {
          "internalType": "address",
          "name": "operator",
          "type": "address"
        }
      ],
      "name": "isApprovedForAll",
      "outputs": [
        {
          "internalType": "bool",
          "name": "",
          "type": "bool"
        }
      ],
      "stateMutability": "view",
      "type": "function"
    },
    {
      "inputs": [
        {
          "internalType": "string",
          "name": "_id",
          "type": "string"
        }
      ],
      "name": "isNameInCards",
      "outputs": [
        {
          "internalType": "bool",
          "name": "",
          "type": "bool"
        }
      ],
      "stateMutability": "view",
      "type": "function"
    },
    {
      "inputs": [
        {
          "internalType": "string",
          "name": "_name",
          "type": "string"
        },
        {
          "internalType": "uint256",
          "name": "_cardNum",
          "type": "uint256"
        }
      ],
      "name": "mintCard",
      "outputs": [],
      "stateMutability": "payable",
      "type": "function"
    },
    {
      "inputs": [],
      "name": "name",
      "outputs": [
        {
          "internalType": "string",
          "name": "",
          "type": "string"
        }
      ],
      "stateMutability": "view",
      "type": "function"
    },
    {
      "inputs": [
        {
          "internalType": "uint256",
          "name": "_counter",
          "type": "uint256"
        }
      ],
      "name": "noLongerSell",
      "outputs": [],
      "stateMutability": "nonpayable",
      "type": "function"
    },
    {
      "inputs": [
        {
          "internalType": "string",
          "name": "_collection",
          "type": "string"
        },
        {
          "internalType": "uint256",
          "name": "_size",
          "type": "uint256"
        }
      ],
      "name": "openBooster",
      "outputs": [],
      "stateMutability": "payable",
      "type": "function"
    },
    {
      "inputs": [],
      "name": "owner",
      "outputs": [
        {
          "internalType": "address",
          "name": "",
          "type": "address"
        }
      ],
      "stateMutability": "view",
      "type": "function"
    },
    {
      "inputs": [
        {
          "internalType": "uint256",
          "name": "tokenId",
          "type": "uint256"
        }
      ],
      "name": "ownerOf",
      "outputs": [
        {
          "internalType": "address",
          "name": "",
          "type": "address"
        }
      ],
      "stateMutability": "view",
      "type": "function"
    },
    {
      "inputs": [
        {
          "internalType": "string",
          "name": "_id",
          "type": "string"
        },
        {
          "internalType": "string",
          "name": "_images",
          "type": "string"
        },
        {
          "internalType": "uint256",
          "name": "_amount",
          "type": "uint256"
        }
      ],
      "name": "putCardOnSale",
      "outputs": [],
      "stateMutability": "nonpayable",
      "type": "function"
    },
    {
      "inputs": [],
      "name": "renounceOwnership",
      "outputs": [],
      "stateMutability": "nonpayable",
      "type": "function"
    },
    {
      "inputs": [
        {
          "internalType": "address",
          "name": "from",
          "type": "address"
        },
        {
          "internalType": "address",
          "name": "to",
          "type": "address"
        },
        {
          "internalType": "uint256",
          "name": "tokenId",
          "type": "uint256"
        }
      ],
      "name": "safeTransferFrom",
      "outputs": [],
      "stateMutability": "nonpayable",
      "type": "function"
    },
    {
      "inputs": [
        {
          "internalType": "address",
          "name": "from",
          "type": "address"
        },
        {
          "internalType": "address",
          "name": "to",
          "type": "address"
        },
        {
          "internalType": "uint256",
          "name": "tokenId",
          "type": "uint256"
        },
        {
          "internalType": "bytes",
          "name": "data",
          "type": "bytes"
        }
      ],
      "name": "safeTransferFrom",
      "outputs": [],
      "stateMutability": "nonpayable",
      "type": "function"
    },
    {
      "inputs": [
        {
          "internalType": "address",
          "name": "operator",
          "type": "address"
        },
        {
          "internalType": "bool",
          "name": "approved",
          "type": "bool"
        }
      ],
      "name": "setApprovalForAll",
      "outputs": [],
      "stateMutability": "nonpayable",
      "type": "function"
    },
    {
      "inputs": [
        {
          "internalType": "bytes4",
          "name": "interfaceId",
          "type": "bytes4"
        }
      ],
      "name": "supportsInterface",
      "outputs": [
        {
          "internalType": "bool",
          "name": "",
          "type": "bool"
        }
      ],
      "stateMutability": "view",
      "type": "function"
    },
    {
      "inputs": [],
      "name": "symbol",
      "outputs": [
        {
          "internalType": "string",
          "name": "",
          "type": "string"
        }
      ],
      "stateMutability": "view",
      "type": "function"
    },
    {
      "inputs": [
        {
          "internalType": "uint256",
          "name": "tokenId",
          "type": "uint256"
        }
      ],
      "name": "tokenURI",
      "outputs": [
        {
          "internalType": "string",
          "name": "",
          "type": "string"
        }
      ],
      "stateMutability": "view",
      "type": "function"
    },
    {
      "inputs": [
        {
          "internalType": "address",
          "name": "from",
          "type": "address"
        },
        {
          "internalType": "address",
          "name": "to",
          "type": "address"
        },
        {
          "internalType": "uint256",
          "name": "tokenId",
          "type": "uint256"
        }
      ],
      "name": "transferFrom",
      "outputs": [],
      "stateMutability": "nonpayable",
      "type": "function"
    },
    {
      "inputs": [
        {
          "internalType": "address",
          "name": "newOwner",
          "type": "address"
        }
      ],
      "name": "transferOwnership",
      "outputs": [],
      "stateMutability": "nonpayable",
      "type": "function"
    },
    {
      "inputs": [
        {
          "internalType": "uint256",
          "name": "_fee",
          "type": "uint256"
        }
      ],
      "name": "updateFee",
      "outputs": [],
      "stateMutability": "nonpayable",
      "type": "function"
    },
    {
      "inputs": [],
      "name": "withdraw",
      "outputs": [],
      "stateMutability": "payable",
      "type": "function"
    }
  ],
  "bytecode": "0x6080604052670de0b6b3a76400006009553480156200001d57600080fd5b506040518060400160405280600981526020017f43617264546f6b656e00000000000000000000000000000000000000000000008152506040518060400160405280600381526020017f43544b000000000000000000000000000000000000000000000000000000000081525081600090816200009b91906200041e565b508060019081620000ad91906200041e565b505050620000d0620000c4620000d660201b60201c565b620000de60201b60201c565b62000505565b600033905090565b6000600660009054906101000a900473ffffffffffffffffffffffffffffffffffffffff16905081600660006101000a81548173ffffffffffffffffffffffffffffffffffffffff021916908373ffffffffffffffffffffffffffffffffffffffff1602179055508173ffffffffffffffffffffffffffffffffffffffff168173ffffffffffffffffffffffffffffffffffffffff167f8be0079c531659141344cd1fd0a4f28419497f9722a3daafe3b4186f6b6457e060405160405180910390a35050565b600081519050919050565b7f4e487b7100000000000000000000000000000000000000000000000000000000600052604160045260246000fd5b7f4e487b7100000000000000000000000000000000000000000000000000000000600052602260045260246000fd5b600060028204905060018216806200022657607f821691505b6020821081036200023c576200023b620001de565b5b50919050565b60008190508160005260206000209050919050565b60006020601f8301049050919050565b600082821b905092915050565b600060088302620002a67fffffffffffffffffffffffffffffffffffffffffffffffffffffffffffffffff8262000267565b620002b2868362000267565b95508019841693508086168417925050509392505050565b6000819050919050565b6000819050919050565b6000620002ff620002f9620002f384620002ca565b620002d4565b620002ca565b9050919050565b6000819050919050565b6200031b83620002de565b620003336200032a8262000306565b84845462000274565b825550505050565b600090565b6200034a6200033b565b6200035781848462000310565b505050565b5b818110156200037f576200037360008262000340565b6001810190506200035d565b5050565b601f821115620003ce57620003988162000242565b620003a38462000257565b81016020851015620003b3578190505b620003cb620003c28562000257565b8301826200035c565b50505b505050565b600082821c905092915050565b6000620003f360001984600802620003d3565b1980831691505092915050565b60006200040e8383620003e0565b9150826002028217905092915050565b6200042982620001a4565b67ffffffffffffffff811115620004455762000444620001af565b5b6200045182546200020d565b6200045e82828562000383565b600060209050601f83116001811462000496576000841562000481578287015190505b6200048d858262000400565b865550620004fd565b601f198416620004a68662000242565b60005b82811015620004d057848901518255600182019150602085019450602081019050620004a9565b86831015620004f05784890151620004ec601f891682620003e0565b8355505b6001600288020188555050505b505050505050565b614e6980620005156000396000f3fe6080604052600436106101b75760003560e01c8063715018a6116100ec578063a22cb4651161008a578063bec77cb111610064578063bec77cb1146105c2578063c87b56dd146105ff578063e985e9c51461063c578063f2fde38b14610679576101b7565b8063a22cb46514610533578063b23be1331461055c578063b88d4fde14610599576101b7565b80638dc10768116100c65780638dc10768146104825780638e55332d146104c35780639012c4a8146104df57806395d89b4114610508576101b7565b8063715018a614610417578063752a6af71461042e5780638da5cb5b14610457576101b7565b80633ccfd60b116101595780635e55b092116101335780635e55b092146103495780636352211e14610374578063683a7392146103b157806370a08231146103da576101b7565b80633ccfd60b146102fa57806342842e0e1461030457806345e29b811461032d576101b7565b8063095ea7b311610195578063095ea7b31461026157806323b872dd1461028a578063306b0fcc146102b3578063383def3f146102cf576101b7565b806301ffc9a7146101bc57806306fdde03146101f9578063081812fc14610224575b600080fd5b3480156101c857600080fd5b506101e360048036038101906101de919061315f565b6106a2565b6040516101f091906131a7565b60405180910390f35b34801561020557600080fd5b5061020e610784565b60405161021b9190613252565b60405180910390f35b34801561023057600080fd5b5061024b600480360381019061024691906132aa565b610816565b6040516102589190613318565b60405180910390f35b34801561026d57600080fd5b506102886004803603810190610283919061335f565b61085c565b005b34801561029657600080fd5b506102b160048036038101906102ac919061339f565b610973565b005b6102cd60048036038101906102c89190613527565b6109d3565b005b3480156102db57600080fd5b506102e4610a26565b6040516102f1919061371b565b60405180910390f35b610302610bc7565b005b34801561031057600080fd5b5061032b6004803603810190610326919061339f565b610c25565b005b6103476004803603810190610342919061373d565b610c45565b005b34801561035557600080fd5b5061035e610e79565b60405161036b919061371b565b60405180910390f35b34801561038057600080fd5b5061039b600480360381019061039691906132aa565b6110cc565b6040516103a89190613318565b60405180910390f35b3480156103bd57600080fd5b506103d860048036038101906103d3919061377d565b611152565b005b3480156103e657600080fd5b5061040160048036038101906103fc9190613808565b6112de565b60405161040e9190613844565b60405180910390f35b34801561042357600080fd5b5061042c611395565b005b34801561043a57600080fd5b50610455600480360381019061045091906132aa565b6113a9565b005b34801561046357600080fd5b5061046c6113ef565b6040516104799190613318565b60405180910390f35b34801561048e57600080fd5b506104a960048036038101906104a491906132aa565b611419565b6040516104ba95949392919061385f565b60405180910390f35b6104dd60048036038101906104d89190613527565b61156f565b005b3480156104eb57600080fd5b50610506600480360381019061050191906132aa565b6116d6565b005b34801561051457600080fd5b5061051d6116e8565b60405161052a9190613252565b60405180910390f35b34801561053f57600080fd5b5061055a600480360381019061055591906138ec565b61177a565b005b34801561056857600080fd5b50610583600480360381019061057e919061392c565b611790565b60405161059091906131a7565b60405180910390f35b3480156105a557600080fd5b506105c060048036038101906105bb9190613a16565b611844565b005b3480156105ce57600080fd5b506105e960048036038101906105e49190613808565b6118a6565b6040516105f6919061371b565b60405180910390f35b34801561060b57600080fd5b50610626600480360381019061062191906132aa565b611b0e565b6040516106339190613252565b60405180910390f35b34801561064857600080fd5b50610663600480360381019061065e9190613a99565b611b76565b60405161067091906131a7565b60405180910390f35b34801561068557600080fd5b506106a0600480360381019061069b9190613808565b611c0a565b005b60007f80ac58cd000000000000000000000000000000000000000000000000000000007bffffffffffffffffffffffffffffffffffffffffffffffffffffffff1916827bffffffffffffffffffffffffffffffffffffffffffffffffffffffff1916148061076d57507f5b5e139f000000000000000000000000000000000000000000000000000000007bffffffffffffffffffffffffffffffffffffffffffffffffffffffff1916827bffffffffffffffffffffffffffffffffffffffffffffffffffffffff1916145b8061077d575061077c82611c8d565b5b9050919050565b60606000805461079390613b08565b80601f01602080910402602001604051908101604052809291908181526020018280546107bf90613b08565b801561080c5780601f106107e15761010080835404028352916020019161080c565b820191906000526020600020905b8154815290600101906020018083116107ef57829003601f168201915b5050505050905090565b600061082182611cf7565b6004600083815260200190815260200160002060009054906101000a900473ffffffffffffffffffffffffffffffffffffffff169050919050565b6000610867826110cc565b90508073ffffffffffffffffffffffffffffffffffffffff168373ffffffffffffffffffffffffffffffffffffffff16036108d7576040517f08c379a00000000000000000000000000000000000000000000000000000000081526004016108ce90613bab565b60405180910390fd5b8073ffffffffffffffffffffffffffffffffffffffff166108f6611d42565b73ffffffffffffffffffffffffffffffffffffffff16148061092557506109248161091f611d42565b611b76565b5b610964576040517f08c379a000000000000000000000000000000000000000000000000000000000815260040161095b90613c3d565b60405180910390fd5b61096e8383611d4a565b505050565b61098461097e611d42565b82611e03565b6109c3576040517f08c379a00000000000000000000000000000000000000000000000000000000081526004016109ba90613ccf565b60405180910390fd5b6109ce838383611e98565b505050565b600954341015610a18576040517f08c379a0000000000000000000000000000000000000000000000000000000008152600401610a0f90613d3b565b60405180910390fd5b610a228282612191565b5050565b6060600a805480602002602001604051908101604052809291908181526020016000905b82821015610bbe57838290600052602060002090600502016040518060a0016040529081600082018054610a7d90613b08565b80601f0160208091040260200160405190810160405280929190818152602001828054610aa990613b08565b8015610af65780601f10610acb57610100808354040283529160200191610af6565b820191906000526020600020905b815481529060010190602001808311610ad957829003601f168201915b50505050508152602001600182015481526020016002820154815260200160038201548152602001600482018054610b2d90613b08565b80601f0160208091040260200160405190810160405280929190818152602001828054610b5990613b08565b8015610ba65780601f10610b7b57610100808354040283529160200191610ba6565b820191906000526020600020905b815481529060010190602001808311610b8957829003601f168201915b50505050508152505081526020019060010190610a4a565b50505050905090565b610bcf6122c1565b6000610bd96113ef565b90508073ffffffffffffffffffffffffffffffffffffffff166108fc479081150290604051600060405180830381858888f19350505050158015610c21573d6000803e3d6000fd5b5050565b610c4083838360405180602001604052806000815250611844565b505050565b6000610c75600a8481548110610c5e57610c5d613d5b565b5b9060005260206000209060050201600101546110cc565b90503373ffffffffffffffffffffffffffffffffffffffff168173ffffffffffffffffffffffffffffffffffffffff1603610ce5576040517f08c379a0000000000000000000000000000000000000000000000000000000008152600401610cdc90613dfc565b60405180910390fd5b600a8381548110610cf957610cf8613d5b565b5b906000526020600020906005020160030154341015610d4d576040517f08c379a0000000000000000000000000000000000000000000000000000000008152600401610d4490613d3b565b60405180910390fd5b6000600a8481548110610d6357610d62613d5b565b5b90600052602060002090600502016003015490508173ffffffffffffffffffffffffffffffffffffffff166108fc349081150290604051600060405180830381858888f19350505050158015610dbd573d6000803e3d6000fd5b506000600a8581548110610dd457610dd3613d5b565b5b906000526020600020906005020160030181905550610df4823386611e98565b60086000815480929190610e0790613e4b565b91905055508173ffffffffffffffffffffffffffffffffffffffff168373ffffffffffffffffffffffffffffffffffffffff167f3751d03c1a75a396add7de6af1fa0c7cbf6a63f9824dd9c4941b9da99f8f50d18684604051610e6b929190613e74565b60405180910390a350505050565b6060600060085467ffffffffffffffff811115610e9957610e986133fc565b5b604051908082528060200260200182016040528015610ed257816020015b610ebf6130c4565b815260200190600190039081610eb75790505b5090506000805b600a805490508110156110c3576000600a8281548110610efc57610efb613d5b565b5b90600052602060002090600502016003015411156110b057600a8181548110610f2857610f27613d5b565b5b90600052602060002090600502016040518060a0016040529081600082018054610f5190613b08565b80601f0160208091040260200160405190810160405280929190818152602001828054610f7d90613b08565b8015610fca5780601f10610f9f57610100808354040283529160200191610fca565b820191906000526020600020905b815481529060010190602001808311610fad57829003601f168201915b5050505050815260200160018201548152602001600282015481526020016003820154815260200160048201805461100190613b08565b80601f016020809104026020016040519081016040528092919081815260200182805461102d90613b08565b801561107a5780601f1061104f5761010080835404028352916020019161107a565b820191906000526020600020905b81548152906001019060200180831161105d57829003601f168201915b50505050508152505083838151811061109657611095613d5b565b5b602002602001018190525081806110ac90613e9d565b9250505b80806110bb90613e9d565b915050610ed9565b50819250505090565b6000806110d88361233f565b9050600073ffffffffffffffffffffffffffffffffffffffff168173ffffffffffffffffffffffffffffffffffffffff1603611149576040517f08c379a000000000000000000000000000000000000000000000000000000000815260040161114090613f31565b60405180910390fd5b80915050919050565b60005b600a805490508110156112d857836040516020016111739190613f8d565b60405160208183030381529060405280519060200120600a828154811061119d5761119c613d5b565b5b90600052602060002090600502016000016040516020016111be919061403c565b60405160208183030381529060405280519060200120036112c5573373ffffffffffffffffffffffffffffffffffffffff166111f9826110cc565b73ffffffffffffffffffffffffffffffffffffffff161461124f576040517f08c379a00000000000000000000000000000000000000000000000000000000081526004016112469061409f565b60405180910390fd5b81600a828154811061126457611263613d5b565b5b90600052602060002090600502016003018190555082600a828154811061128e5761128d613d5b565b5b906000526020600020906005020160040190816112ab9190614256565b50600860008154809291906112bf90613e9d565b91905055505b80806112d090613e9d565b915050611155565b50505050565b60008073ffffffffffffffffffffffffffffffffffffffff168273ffffffffffffffffffffffffffffffffffffffff160361134e576040517f08c379a00000000000000000000000000000000000000000000000000000000081526004016113459061439a565b60405180910390fd5b600360008373ffffffffffffffffffffffffffffffffffffffff1673ffffffffffffffffffffffffffffffffffffffff168152602001908152602001600020549050919050565b61139d6122c1565b6113a7600061237c565b565b6000600a82815481106113bf576113be613d5b565b5b906000526020600020906005020160030181905550600860008154809291906113e790613e4b565b919050555050565b6000600660009054906101000a900473ffffffffffffffffffffffffffffffffffffffff16905090565b600a818154811061142957600080fd5b906000526020600020906005020160009150905080600001805461144c90613b08565b80601f016020809104026020016040519081016040528092919081815260200182805461147890613b08565b80156114c55780601f1061149a576101008083540402835291602001916114c5565b820191906000526020600020905b8154815290600101906020018083116114a857829003601f168201915b5050505050908060010154908060020154908060030154908060040180546114ec90613b08565b80601f016020809104026020016040519081016040528092919081815260200182805461151890613b08565b80156115655780601f1061153a57610100808354040283529160200191611565565b820191906000526020600020905b81548152906001019060200180831161154857829003601f168201915b5050505050905085565b61157882612442565b3410156115ba576040517f08c379a00000000000000000000000000000000000000000000000000000000081526004016115b190613d3b565b60405180910390fd5b60005b60038110156116d15760006115dc82846115d791906143ba565b6127f2565b905060006115e982612837565b90506000856040516020016115fe9190614414565b60405160208183030381529060405290506000818360405160200161162492919061443a565b60405160208183030381529060405290505b61163f81611790565b156116b057611658858761165391906143ba565b6127f2565b935061166384612837565b9250866040516020016116769190614414565b6040516020818303038152906040529150818360405160200161169a92919061443a565b6040516020818303038152906040529050611636565b6116ba8185612191565b5050505080806116c990613e9d565b9150506115bd565b505050565b6116de6122c1565b8060098190555050565b6060600180546116f790613b08565b80601f016020809104026020016040519081016040528092919081815260200182805461172390613b08565b80156117705780601f1061174557610100808354040283529160200191611770565b820191906000526020600020905b81548152906001019060200180831161175357829003601f168201915b5050505050905090565b61178c611785611d42565b8383612905565b5050565b600080600090505b600a8054905081101561183957826040516020016117b69190613f8d565b60405160208183030381529060405280519060200120600a82815481106117e0576117df613d5b565b5b9060005260206000209060050201600001604051602001611801919061403c565b604051602081830303815290604052805190602001200361182657600191505061183f565b808061183190613e9d565b915050611798565b50600090505b919050565b61185561184f611d42565b83611e03565b611894576040517f08c379a000000000000000000000000000000000000000000000000000000000815260040161188b90613ccf565b60405180910390fd5b6118a084848484612a71565b50505050565b606060006118b3836112de565b67ffffffffffffffff8111156118cc576118cb6133fc565b5b60405190808252806020026020018201604052801561190557816020015b6118f26130c4565b8152602001906001900390816118ea5790505b5090506000805b600a80549050811015611b03578473ffffffffffffffffffffffffffffffffffffffff16611939826110cc565b73ffffffffffffffffffffffffffffffffffffffff1603611af057600a818154811061196857611967613d5b565b5b90600052602060002090600502016040518060a001604052908160008201805461199190613b08565b80601f01602080910402602001604051908101604052809291908181526020018280546119bd90613b08565b8015611a0a5780601f106119df57610100808354040283529160200191611a0a565b820191906000526020600020905b8154815290600101906020018083116119ed57829003601f168201915b50505050508152602001600182015481526020016002820154815260200160038201548152602001600482018054611a4190613b08565b80601f0160208091040260200160405190810160405280929190818152602001828054611a6d90613b08565b8015611aba5780601f10611a8f57610100808354040283529160200191611aba565b820191906000526020600020905b815481529060010190602001808311611a9d57829003601f168201915b505050505081525050838381518110611ad657611ad5613d5b565b5b60200260200101819052508180611aec90613e9d565b9250505b8080611afb90613e9d565b91505061190c565b508192505050919050565b6060611b1982611cf7565b6000611b23612acd565b90506000815111611b435760405180602001604052806000815250611b6e565b80611b4d84612837565b604051602001611b5e92919061443a565b6040516020818303038152906040525b915050919050565b6000600560008473ffffffffffffffffffffffffffffffffffffffff1673ffffffffffffffffffffffffffffffffffffffff16815260200190815260200160002060008373ffffffffffffffffffffffffffffffffffffffff1673ffffffffffffffffffffffffffffffffffffffff16815260200190815260200160002060009054906101000a900460ff16905092915050565b611c126122c1565b600073ffffffffffffffffffffffffffffffffffffffff168173ffffffffffffffffffffffffffffffffffffffff1603611c81576040517f08c379a0000000000000000000000000000000000000000000000000000000008152600401611c78906144d0565b60405180910390fd5b611c8a8161237c565b50565b60007f01ffc9a7000000000000000000000000000000000000000000000000000000007bffffffffffffffffffffffffffffffffffffffffffffffffffffffff1916827bffffffffffffffffffffffffffffffffffffffffffffffffffffffff1916149050919050565b611d0081612ae4565b611d3f576040517f08c379a0000000000000000000000000000000000000000000000000000000008152600401611d3690613f31565b60405180910390fd5b50565b600033905090565b816004600083815260200190815260200160002060006101000a81548173ffffffffffffffffffffffffffffffffffffffff021916908373ffffffffffffffffffffffffffffffffffffffff160217905550808273ffffffffffffffffffffffffffffffffffffffff16611dbd836110cc565b73ffffffffffffffffffffffffffffffffffffffff167f8c5be1e5ebec7d5bd14f71427d1e84f3dd0314c0f7b2291e5b200ac8c7c3b92560405160405180910390a45050565b600080611e0f836110cc565b90508073ffffffffffffffffffffffffffffffffffffffff168473ffffffffffffffffffffffffffffffffffffffff161480611e515750611e508185611b76565b5b80611e8f57508373ffffffffffffffffffffffffffffffffffffffff16611e7784610816565b73ffffffffffffffffffffffffffffffffffffffff16145b91505092915050565b8273ffffffffffffffffffffffffffffffffffffffff16611eb8826110cc565b73ffffffffffffffffffffffffffffffffffffffff1614611f0e576040517f08c379a0000000000000000000000000000000000000000000000000000000008152600401611f0590614562565b60405180910390fd5b600073ffffffffffffffffffffffffffffffffffffffff168273ffffffffffffffffffffffffffffffffffffffff1603611f7d576040517f08c379a0000000000000000000000000000000000000000000000000000000008152600401611f74906145f4565b60405180910390fd5b611f8a8383836001612b25565b8273ffffffffffffffffffffffffffffffffffffffff16611faa826110cc565b73ffffffffffffffffffffffffffffffffffffffff1614612000576040517f08c379a0000000000000000000000000000000000000000000000000000000008152600401611ff790614562565b60405180910390fd5b6004600082815260200190815260200160002060006101000a81549073ffffffffffffffffffffffffffffffffffffffff02191690556001600360008573ffffffffffffffffffffffffffffffffffffffff1673ffffffffffffffffffffffffffffffffffffffff168152602001908152602001600020600082825403925050819055506001600360008473ffffffffffffffffffffffffffffffffffffffff1673ffffffffffffffffffffffffffffffffffffffff16815260200190815260200160002060008282540192505081905550816002600083815260200190815260200160002060006101000a81548173ffffffffffffffffffffffffffffffffffffffff021916908373ffffffffffffffffffffffffffffffffffffffff160217905550808273ffffffffffffffffffffffffffffffffffffffff168473ffffffffffffffffffffffffffffffffffffffff167fddf252ad1be2c89b69c2b068fc378daa952ba7f163c4a11628f55a4df523b3ef60405160405180910390a461218c8383836001612b2b565b505050565b60006040518060a00160405280848152602001600754815260200183815260200160008152602001604051806020016040528060008152508152509050600a819080600181540180825580915050600190039060005260206000209060050201600090919091909150600082015181600001908161220f9190614256565b5060208201518160010155604082015181600201556060820151816003015560808201518160040190816122439190614256565b50505061225233600754612b31565b3373ffffffffffffffffffffffffffffffffffffffff167fb3fa422253152603b2f147d59ed070dd9ed60ebee9f6ee5f07bd2be62df7df286007548560405161229c929190614614565b60405180910390a2600760008154809291906122b790613e9d565b9190505550505050565b6122c9611d42565b73ffffffffffffffffffffffffffffffffffffffff166122e76113ef565b73ffffffffffffffffffffffffffffffffffffffff161461233d576040517f08c379a000000000000000000000000000000000000000000000000000000000815260040161233490614690565b60405180910390fd5b565b60006002600083815260200190815260200160002060009054906101000a900473ffffffffffffffffffffffffffffffffffffffff169050919050565b6000600660009054906101000a900473ffffffffffffffffffffffffffffffffffffffff16905081600660006101000a81548173ffffffffffffffffffffffffffffffffffffffff021916908373ffffffffffffffffffffffffffffffffffffffff1602179055508173ffffffffffffffffffffffffffffffffffffffff168173ffffffffffffffffffffffffffffffffffffffff167f8be0079c531659141344cd1fd0a4f28419497f9722a3daafe3b4186f6b6457e060405160405180910390a35050565b6000604051602001612453906146fc565b604051602081830303815290604052805190602001208260405160200161247a9190613f8d565b60405160208183030381529060405280519060200120036124a557674563918244f4000090506127ed565b6040516020016124b49061475d565b60405160208183030381529060405280519060200120826040516020016124db9190613f8d565b604051602081830303815290604052805190602001200361250657678ac7230489e8000090506127ed565b604051602001612515906147be565b604051602081830303815290604052805190602001208260405160200161253c9190613f8d565b604051602081830303815290604052805190602001200361256757678ac7230489e8000090506127ed565b6040516020016125769061481f565b604051602081830303815290604052805190602001208260405160200161259d9190613f8d565b60405160208183030381529060405280519060200120036125c85767d02ab486cedc000090506127ed565b6040516020016125d790614880565b60405160208183030381529060405280519060200120826040516020016125fe9190613f8d565b604051602081830303815290604052805190602001200361262a576801158e460913d0000090506127ed565b604051602001612639906148e1565b60405160208183030381529060405280519060200120826040516020016126609190613f8d565b604051602081830303815290604052805190602001200361268c5768015af1d78b58c4000090506127ed565b60405160200161269b90614942565b60405160208183030381529060405280519060200120826040516020016126c29190613f8d565b60405160208183030381529060405280519060200120036126ee576801a055690d9db8000090506127ed565b6040516020016126fd906149a3565b60405160208183030381529060405280519060200120826040516020016127249190613f8d565b6040516020818303038152906040528051906020012003612750576801e5b8fa8fe2ac000090506127ed565b60405160200161275f90614a04565b60405160208183030381529060405280519060200120826040516020016127869190613f8d565b60405160208183030381529060405280519060200120036127b25768022b1c8c1227a0000090506127ed565b6040517f08c379a00000000000000000000000000000000000000000000000000000000081526004016127e490614a65565b60405180910390fd5b919050565b6000804233604051602001612808929190614aee565b6040516020818303038152906040528051906020012060001c9050828161282f9190614b49565b915050919050565b60606000600161284684612b4f565b01905060008167ffffffffffffffff811115612865576128646133fc565b5b6040519080825280601f01601f1916602001820160405280156128975781602001600182028036833780820191505090505b509050600082602001820190505b6001156128fa578080600190039150507f3031323334353637383961626364656600000000000000000000000000000000600a86061a8153600a85816128ee576128ed614b1a565b5b049450600085036128a5575b819350505050919050565b8173ffffffffffffffffffffffffffffffffffffffff168373ffffffffffffffffffffffffffffffffffffffff1603612973576040517f08c379a000000000000000000000000000000000000000000000000000000000815260040161296a90614bc6565b60405180910390fd5b80600560008573ffffffffffffffffffffffffffffffffffffffff1673ffffffffffffffffffffffffffffffffffffffff16815260200190815260200160002060008473ffffffffffffffffffffffffffffffffffffffff1673ffffffffffffffffffffffffffffffffffffffff16815260200190815260200160002060006101000a81548160ff0219169083151502179055508173ffffffffffffffffffffffffffffffffffffffff168373ffffffffffffffffffffffffffffffffffffffff167f17307eab39ab6107e8899845ad3d59bd9653f200f220920489ca2b5937696c3183604051612a6491906131a7565b60405180910390a3505050565b612a7c848484611e98565b612a8884848484612ca2565b612ac7576040517f08c379a0000000000000000000000000000000000000000000000000000000008152600401612abe90614c58565b60405180910390fd5b50505050565b606060405180602001604052806000815250905090565b60008073ffffffffffffffffffffffffffffffffffffffff16612b068361233f565b73ffffffffffffffffffffffffffffffffffffffff1614159050919050565b50505050565b50505050565b612b4b828260405180602001604052806000815250612e29565b5050565b600080600090507a184f03e93ff9f4daa797ed6e38ed64bf6a1f0100000000000000008310612bad577a184f03e93ff9f4daa797ed6e38ed64bf6a1f0100000000000000008381612ba357612ba2614b1a565b5b0492506040810190505b6d04ee2d6d415b85acef81000000008310612bea576d04ee2d6d415b85acef81000000008381612be057612bdf614b1a565b5b0492506020810190505b662386f26fc100008310612c1957662386f26fc100008381612c0f57612c0e614b1a565b5b0492506010810190505b6305f5e1008310612c42576305f5e1008381612c3857612c37614b1a565b5b0492506008810190505b6127108310612c67576127108381612c5d57612c5c614b1a565b5b0492506004810190505b60648310612c8a5760648381612c8057612c7f614b1a565b5b0492506002810190505b600a8310612c99576001810190505b80915050919050565b6000612cc38473ffffffffffffffffffffffffffffffffffffffff16612e84565b15612e1c578373ffffffffffffffffffffffffffffffffffffffff1663150b7a02612cec611d42565b8786866040518563ffffffff1660e01b8152600401612d0e9493929190614ccd565b6020604051808303816000875af1925050508015612d4a57506040513d601f19601f82011682018060405250810190612d479190614d2e565b60015b612dcc573d8060008114612d7a576040519150601f19603f3d011682016040523d82523d6000602084013e612d7f565b606091505b506000815103612dc4576040517f08c379a0000000000000000000000000000000000000000000000000000000008152600401612dbb90614c58565b60405180910390fd5b805181602001fd5b63150b7a0260e01b7bffffffffffffffffffffffffffffffffffffffffffffffffffffffff1916817bffffffffffffffffffffffffffffffffffffffffffffffffffffffff191614915050612e21565b600190505b949350505050565b612e338383612ea7565b612e406000848484612ca2565b612e7f576040517f08c379a0000000000000000000000000000000000000000000000000000000008152600401612e7690614c58565b60405180910390fd5b505050565b6000808273ffffffffffffffffffffffffffffffffffffffff163b119050919050565b600073ffffffffffffffffffffffffffffffffffffffff168273ffffffffffffffffffffffffffffffffffffffff1603612f16576040517f08c379a0000000000000000000000000000000000000000000000000000000008152600401612f0d90614da7565b60405180910390fd5b612f1f81612ae4565b15612f5f576040517f08c379a0000000000000000000000000000000000000000000000000000000008152600401612f5690614e13565b60405180910390fd5b612f6d600083836001612b25565b612f7681612ae4565b15612fb6576040517f08c379a0000000000000000000000000000000000000000000000000000000008152600401612fad90614e13565b60405180910390fd5b6001600360008473ffffffffffffffffffffffffffffffffffffffff1673ffffffffffffffffffffffffffffffffffffffff16815260200190815260200160002060008282540192505081905550816002600083815260200190815260200160002060006101000a81548173ffffffffffffffffffffffffffffffffffffffff021916908373ffffffffffffffffffffffffffffffffffffffff160217905550808273ffffffffffffffffffffffffffffffffffffffff16600073ffffffffffffffffffffffffffffffffffffffff167fddf252ad1be2c89b69c2b068fc378daa952ba7f163c4a11628f55a4df523b3ef60405160405180910390a46130c0600083836001612b2b565b5050565b6040518060a0016040528060608152602001600081526020016000815260200160008152602001606081525090565b6000604051905090565b600080fd5b600080fd5b60007fffffffff0000000000000000000000000000000000000000000000000000000082169050919050565b61313c81613107565b811461314757600080fd5b50565b60008135905061315981613133565b92915050565b600060208284031215613175576131746130fd565b5b60006131838482850161314a565b91505092915050565b60008115159050919050565b6131a18161318c565b82525050565b60006020820190506131bc6000830184613198565b92915050565b600081519050919050565b600082825260208201905092915050565b60005b838110156131fc5780820151818401526020810190506131e1565b60008484015250505050565b6000601f19601f8301169050919050565b6000613224826131c2565b61322e81856131cd565b935061323e8185602086016131de565b61324781613208565b840191505092915050565b6000602082019050818103600083015261326c8184613219565b905092915050565b6000819050919050565b61328781613274565b811461329257600080fd5b50565b6000813590506132a48161327e565b92915050565b6000602082840312156132c0576132bf6130fd565b5b60006132ce84828501613295565b91505092915050565b600073ffffffffffffffffffffffffffffffffffffffff82169050919050565b6000613302826132d7565b9050919050565b613312816132f7565b82525050565b600060208201905061332d6000830184613309565b92915050565b61333c816132f7565b811461334757600080fd5b50565b60008135905061335981613333565b92915050565b60008060408385031215613376576133756130fd565b5b60006133848582860161334a565b925050602061339585828601613295565b9150509250929050565b6000806000606084860312156133b8576133b76130fd565b5b60006133c68682870161334a565b93505060206133d78682870161334a565b92505060406133e886828701613295565b9150509250925092565b600080fd5b600080fd5b7f4e487b7100000000000000000000000000000000000000000000000000000000600052604160045260246000fd5b61343482613208565b810181811067ffffffffffffffff82111715613453576134526133fc565b5b80604052505050565b60006134666130f3565b9050613472828261342b565b919050565b600067ffffffffffffffff821115613492576134916133fc565b5b61349b82613208565b9050602081019050919050565b82818337600083830152505050565b60006134ca6134c584613477565b61345c565b9050828152602081018484840111156134e6576134e56133f7565b5b6134f18482856134a8565b509392505050565b600082601f83011261350e5761350d6133f2565b5b813561351e8482602086016134b7565b91505092915050565b6000806040838503121561353e5761353d6130fd565b5b600083013567ffffffffffffffff81111561355c5761355b613102565b5b613568858286016134f9565b925050602061357985828601613295565b9150509250929050565b600081519050919050565b600082825260208201905092915050565b6000819050602082019050919050565b600082825260208201905092915050565b60006135cb826131c2565b6135d581856135af565b93506135e58185602086016131de565b6135ee81613208565b840191505092915050565b61360281613274565b82525050565b600060a083016000830151848203600086015261362582826135c0565b915050602083015161363a60208601826135f9565b50604083015161364d60408601826135f9565b50606083015161366060608601826135f9565b506080830151848203608086015261367882826135c0565b9150508091505092915050565b60006136918383613608565b905092915050565b6000602082019050919050565b60006136b182613583565b6136bb818561358e565b9350836020820285016136cd8561359f565b8060005b8581101561370957848403895281516136ea8582613685565b94506136f583613699565b925060208a019950506001810190506136d1565b50829750879550505050505092915050565b6000602082019050818103600083015261373581846136a6565b905092915050565b60008060408385031215613754576137536130fd565b5b600061376285828601613295565b92505060206137738582860161334a565b9150509250929050565b600080600060608486031215613796576137956130fd565b5b600084013567ffffffffffffffff8111156137b4576137b3613102565b5b6137c0868287016134f9565b935050602084013567ffffffffffffffff8111156137e1576137e0613102565b5b6137ed868287016134f9565b92505060406137fe86828701613295565b9150509250925092565b60006020828403121561381e5761381d6130fd565b5b600061382c8482850161334a565b91505092915050565b61383e81613274565b82525050565b60006020820190506138596000830184613835565b92915050565b600060a08201905081810360008301526138798188613219565b90506138886020830187613835565b6138956040830186613835565b6138a26060830185613835565b81810360808301526138b48184613219565b90509695505050505050565b6138c98161318c565b81146138d457600080fd5b50565b6000813590506138e6816138c0565b92915050565b60008060408385031215613903576139026130fd565b5b60006139118582860161334a565b9250506020613922858286016138d7565b9150509250929050565b600060208284031215613942576139416130fd565b5b600082013567ffffffffffffffff8111156139605761395f613102565b5b61396c848285016134f9565b91505092915050565b600067ffffffffffffffff8211156139905761398f6133fc565b5b61399982613208565b9050602081019050919050565b60006139b96139b484613975565b61345c565b9050828152602081018484840111156139d5576139d46133f7565b5b6139e08482856134a8565b509392505050565b600082601f8301126139fd576139fc6133f2565b5b8135613a0d8482602086016139a6565b91505092915050565b60008060008060808587031215613a3057613a2f6130fd565b5b6000613a3e8782880161334a565b9450506020613a4f8782880161334a565b9350506040613a6087828801613295565b925050606085013567ffffffffffffffff811115613a8157613a80613102565b5b613a8d878288016139e8565b91505092959194509250565b60008060408385031215613ab057613aaf6130fd565b5b6000613abe8582860161334a565b9250506020613acf8582860161334a565b9150509250929050565b7f4e487b7100000000000000000000000000000000000000000000000000000000600052602260045260246000fd5b60006002820490506001821680613b2057607f821691505b602082108103613b3357613b32613ad9565b5b50919050565b7f4552433732313a20617070726f76616c20746f2063757272656e74206f776e6560008201527f7200000000000000000000000000000000000000000000000000000000000000602082015250565b6000613b956021836131cd565b9150613ba082613b39565b604082019050919050565b60006020820190508181036000830152613bc481613b88565b9050919050565b7f4552433732313a20617070726f76652063616c6c6572206973206e6f7420746f60008201527f6b656e206f776e6572206f7220617070726f76656420666f7220616c6c000000602082015250565b6000613c27603d836131cd565b9150613c3282613bcb565b604082019050919050565b60006020820190508181036000830152613c5681613c1a565b9050919050565b7f4552433732313a2063616c6c6572206973206e6f7420746f6b656e206f776e6560008201527f72206f7220617070726f76656400000000000000000000000000000000000000602082015250565b6000613cb9602d836131cd565b9150613cc482613c5d565b604082019050919050565b60006020820190508181036000830152613ce881613cac565b9050919050565b7f54686520616d6f756e74206973206e6f7420636f727265637421000000000000600082015250565b6000613d25601a836131cd565b9150613d3082613cef565b602082019050919050565b60006020820190508181036000830152613d5481613d18565b9050919050565b7f4e487b7100000000000000000000000000000000000000000000000000000000600052603260045260246000fd5b7f596f752063616e6e6f742062757920796f7572206f776e20636172642061676160008201527f696e210000000000000000000000000000000000000000000000000000000000602082015250565b6000613de66023836131cd565b9150613df182613d8a565b604082019050919050565b60006020820190508181036000830152613e1581613dd9565b9050919050565b7f4e487b7100000000000000000000000000000000000000000000000000000000600052601160045260246000fd5b6000613e5682613274565b915060008203613e6957613e68613e1c565b5b600182039050919050565b6000604082019050613e896000830185613835565b613e966020830184613835565b9392505050565b6000613ea882613274565b91507fffffffffffffffffffffffffffffffffffffffffffffffffffffffffffffffff8203613eda57613ed9613e1c565b5b600182019050919050565b7f4552433732313a20696e76616c696420746f6b656e2049440000000000000000600082015250565b6000613f1b6018836131cd565b9150613f2682613ee5565b602082019050919050565b60006020820190508181036000830152613f4a81613f0e565b9050919050565b600081905092915050565b6000613f67826131c2565b613f718185613f51565b9350613f818185602086016131de565b80840191505092915050565b6000613f998284613f5c565b915081905092915050565b60008190508160005260206000209050919050565b60008154613fc681613b08565b613fd08186613f51565b94506001821660008114613feb576001811461400057614033565b60ff1983168652811515820286019350614033565b61400985613fa4565b60005b8381101561402b5781548189015260018201915060208101905061400c565b838801955050505b50505092915050565b60006140488284613fb9565b915081905092915050565b7f596f7520646f206e6f74206f776e207468697320636172642e00000000000000600082015250565b60006140896019836131cd565b915061409482614053565b602082019050919050565b600060208201905081810360008301526140b88161407c565b9050919050565b60006020601f8301049050919050565b600082821b905092915050565b60006008830261410c7fffffffffffffffffffffffffffffffffffffffffffffffffffffffffffffffff826140cf565b61411686836140cf565b95508019841693508086168417925050509392505050565b6000819050919050565b600061415361414e61414984613274565b61412e565b613274565b9050919050565b6000819050919050565b61416d83614138565b6141816141798261415a565b8484546140dc565b825550505050565b600090565b614196614189565b6141a1818484614164565b505050565b5b818110156141c5576141ba60008261418e565b6001810190506141a7565b5050565b601f82111561420a576141db81613fa4565b6141e4846140bf565b810160208510156141f3578190505b6142076141ff856140bf565b8301826141a6565b50505b505050565b600082821c905092915050565b600061422d6000198460080261420f565b1980831691505092915050565b6000614246838361421c565b9150826002028217905092915050565b61425f826131c2565b67ffffffffffffffff811115614278576142776133fc565b5b6142828254613b08565b61428d8282856141c9565b600060209050601f8311600181146142c057600084156142ae578287015190505b6142b8858261423a565b865550614320565b601f1984166142ce86613fa4565b60005b828110156142f6578489015182556001820191506020850194506020810190506142d1565b86831015614313578489015161430f601f89168261421c565b8355505b6001600288020188555050505b505050505050565b7f4552433732313a2061646472657373207a65726f206973206e6f74206120766160008201527f6c6964206f776e65720000000000000000000000000000000000000000000000602082015250565b60006143846029836131cd565b915061438f82614328565b604082019050919050565b600060208201905081810360008301526143b381614377565b9050919050565b60006143c582613274565b91506143d083613274565b92508282039050818111156143e8576143e7613e1c565b5b92915050565b7f2d00000000000000000000000000000000000000000000000000000000000000815250565b60006144208284613f5c565b915061442b826143ee565b60018201915081905092915050565b60006144468285613f5c565b91506144528284613f5c565b91508190509392505050565b7f4f776e61626c653a206e6577206f776e657220697320746865207a65726f206160008201527f6464726573730000000000000000000000000000000000000000000000000000602082015250565b60006144ba6026836131cd565b91506144c58261445e565b604082019050919050565b600060208201905081810360008301526144e9816144ad565b9050919050565b7f4552433732313a207472616e736665722066726f6d20696e636f72726563742060008201527f6f776e6572000000000000000000000000000000000000000000000000000000602082015250565b600061454c6025836131cd565b9150614557826144f0565b604082019050919050565b6000602082019050818103600083015261457b8161453f565b9050919050565b7f4552433732313a207472616e7366657220746f20746865207a65726f2061646460008201527f7265737300000000000000000000000000000000000000000000000000000000602082015250565b60006145de6024836131cd565b91506145e982614582565b604082019050919050565b6000602082019050818103600083015261460d816145d1565b9050919050565b60006040820190506146296000830185613835565b818103602083015261463b8184613219565b90509392505050565b7f4f776e61626c653a2063616c6c6572206973206e6f7420746865206f776e6572600082015250565b600061467a6020836131cd565b915061468582614644565b602082019050919050565b600060208201905081810360008301526146a98161466d565b9050919050565b7f6261736535000000000000000000000000000000000000000000000000000000600082015250565b60006146e6600583613f51565b91506146f1826146b0565b600582019050919050565b6000614707826146d9565b9150819050919050565b7f6470310000000000000000000000000000000000000000000000000000000000600082015250565b6000614747600383613f51565b915061475282614711565b600382019050919050565b60006147688261473a565b9150819050919050565b7f70676f0000000000000000000000000000000000000000000000000000000000600082015250565b60006147a8600383613f51565b91506147b382614772565b600382019050919050565b60006147c98261479b565b9150819050919050565b7f63656c3235000000000000000000000000000000000000000000000000000000600082015250565b6000614809600583613f51565b9150614814826147d3565b600582019050919050565b600061482a826147fc565b9150819050919050565b7f6261736532000000000000000000000000000000000000000000000000000000600082015250565b600061486a600583613f51565b915061487582614834565b600582019050919050565b600061488b8261485d565b9150819050919050565b7f6563617264320000000000000000000000000000000000000000000000000000600082015250565b60006148cb600683613f51565b91506148d682614895565b600682019050919050565b60006148ec826148be565b9150819050919050565b7f6261736536000000000000000000000000000000000000000000000000000000600082015250565b600061492c600583613f51565b9150614937826148f6565b600582019050919050565b600061494d8261491f565b9150819050919050565b7f6578310000000000000000000000000000000000000000000000000000000000600082015250565b600061498d600383613f51565b915061499882614957565b600382019050919050565b60006149ae82614980565b9150819050919050565b7f6578320000000000000000000000000000000000000000000000000000000000600082015250565b60006149ee600383613f51565b91506149f9826149b8565b600382019050919050565b6000614a0f826149e1565b9150819050919050565b7f436f6c6c656374696f6e206e6f74207265636f676e697a65642e000000000000600082015250565b6000614a4f601a836131cd565b9150614a5a82614a19565b602082019050919050565b60006020820190508181036000830152614a7e81614a42565b9050919050565b6000819050919050565b614aa0614a9b82613274565b614a85565b82525050565b60008160601b9050919050565b6000614abe82614aa6565b9050919050565b6000614ad082614ab3565b9050919050565b614ae8614ae3826132f7565b614ac5565b82525050565b6000614afa8285614a8f565b602082019150614b0a8284614ad7565b6014820191508190509392505050565b7f4e487b7100000000000000000000000000000000000000000000000000000000600052601260045260246000fd5b6000614b5482613274565b9150614b5f83613274565b925082614b6f57614b6e614b1a565b5b828206905092915050565b7f4552433732313a20617070726f766520746f2063616c6c657200000000000000600082015250565b6000614bb06019836131cd565b9150614bbb82614b7a565b602082019050919050565b60006020820190508181036000830152614bdf81614ba3565b9050919050565b7f4552433732313a207472616e7366657220746f206e6f6e20455243373231526560008201527f63656976657220696d706c656d656e7465720000000000000000000000000000602082015250565b6000614c426032836131cd565b9150614c4d82614be6565b604082019050919050565b60006020820190508181036000830152614c7181614c35565b9050919050565b600081519050919050565b600082825260208201905092915050565b6000614c9f82614c78565b614ca98185614c83565b9350614cb98185602086016131de565b614cc281613208565b840191505092915050565b6000608082019050614ce26000830187613309565b614cef6020830186613309565b614cfc6040830185613835565b8181036060830152614d0e8184614c94565b905095945050505050565b600081519050614d2881613133565b92915050565b600060208284031215614d4457614d436130fd565b5b6000614d5284828501614d19565b91505092915050565b7f4552433732313a206d696e7420746f20746865207a65726f2061646472657373600082015250565b6000614d916020836131cd565b9150614d9c82614d5b565b602082019050919050565b60006020820190508181036000830152614dc081614d84565b9050919050565b7f4552433732313a20746f6b656e20616c7265616479206d696e74656400000000600082015250565b6000614dfd601c836131cd565b9150614e0882614dc7565b602082019050919050565b60006020820190508181036000830152614e2c81614df0565b905091905056fea2646970667358221220539135b6c67429d50f50ed3327cfd5ddee4fce79cac36c0469ac0aa329067bbf64736f6c63430008130033",
  "linkReferences": {},
  "deployedLinkReferences": {}
}